:020000040800F2
:10000000A84000200501000885540008EF450008BD
:1000100081540008E1160008B161000800000000EA
:100020000000000000000000000000002D5A000841
:10003000051A000800000000015A00082F5A0008A5
:100040001F0100081F0100081F0100081F01000810
:100050001F0100081F0100081F0100081F01000800
:100060001F0100081F0100081F010008B91900083E
:100070001F0100081F0100081F0100081F010008E0
:10008000C91900081F0100081F0100081F0100080E
:100090001F0100081F0100081F0100081F010008C0
:1000A0001F0100081F0100081F0100081F010008B0
:1000B0001F0100081F0100081F0100081F010008A0
:1000C0001F0100081F0100081F0100081F01000890
:1000D0001F01000891610008A16100081F010008CC
:1000E0001F0100081F0100081F010008DFF810D0E1
:1000F00000F06EFF00480047A98A0008AFF30080B7
:10010000A84000200648804706480047FEE7FEE773
:10011000FEE7FEE7FEE7FEE7FEE7FEE7FEE7FEE7B7
:10012000BB5A0008ED0000082DE9F0410024061B31
:10013000254671F1000605DA01240027D0EB0700FF
:1001400067EB0101161E73F1000605DA0027D2EBFA
:100150000702012567EB030300F094FD86460E4677
:1001600017469C46AC4204D00025D0EB050E65EB4B
:10017000010624B10020D2EB000760EB030C7046AF
:1001800031463A466346BDE8F081202A04DB203A36
:1001900021FA02F00021704721FA02F3D040C2F1A7
:1001A0002002914008431946704740EA01039B072B
:1001B00003D009E008C9121F08C0042AFAD203E0DC
:1001C00011F8013B00F8013B521EF9D27047D2B240
:1001D00001E000F8012B491EFBD270470022F6E730
:1001E00010B513460A4604461946FFF7F0FF2046AD
:1001F00010BD30B505462A460B4612F8010B13F820
:10020000014B08B1A042F8D01CB1002802D06D1CEF
:10021000F1E7284630BDCAB2401E10F8011F8A42DD
:1002200002D00029F9D100207047421C10F8011BB0
:100230000029FBD1801A704730B5044600200346E0
:1002400000E05B1C934203D2E05CCD5C401BF8D025
:1002500030BD30B505460020034600E05B1C9342EC
:1002600005D2EC5CC85C201A01D1002CF6D130BD5F
:100270000FB400B58DB010A909900B9000914FF00C
:10028000FF300A9000200C90054806900548079022
:100290006A4609A80F9900F04DFD0DB05DF814FBFA
:1002A000510D00086F0D00082DE9FF4F087883B04D
:1002B0009946FF2805D0491C2D2804D00024002091
:1002C00008E000200BE00124F9E700EB800003EBDD
:1002D0004000491C0B78FF2BF7D104B140420023AA
:1002E0000293147819461D462D2C01D02B2C04D1D5
:1002F000521C2D2C13D000240294AA461478FF2CF3
:100300000FD00A25A3FB057801FB05814FF0000CF7
:1003100003FB0C11521CE3194AEB0101EEE7012427
:10032000EAE7814453EA010002D019F5C87F06DAF2
:1003300003980021C0E9001107B0BDE8F08F002547
:10034000AE4E2F46DFF8B882184600F01DFECDE90C
:100350000001B9F1000002DAC9F1000400E004462E
:100360000023A74A1AEB030B42EB045A12E0E00702
:1003700007D02A4633463846414600F0B4FA0746CD
:1003800088462A4633461046194600F0ACFA054620
:100390000E466410002CEAD1DDE90001B9F1000F2E
:1003A0005A46534606DA00F010FB3A46434600F040
:1003B0000CFB05E000F097FA3A46434600F093FA4A
:1003C000029A0AB181F00041039AC2E90001B3E741
:1003D0002DE9FF4F1F468DB0D7E901464FF0FF389A
:1003E0002E2045464FF000090B90B9696D1C0E9800
:1003F0008847396A824688470028F6D1BAF1FF3F1C
:100400000AD024F4D064002E11DDBAF12B0F08D0ED
:10041000BAF12D0F0BD102E0404611B08DE744F444
:100420008064B9696D1C0E9888478246761E6946BD
:10043000600501D52D2000E02B208DF8000001F192
:10044000010B0DF1200809E0B9696D1C0E98884771
:1004500082460F9844F40074761E0560002E02DD7B
:10046000BAF1300FF0D00B998A453ED144F08004A8
:1004700006E00F99681CA9F1010944F400740860B2
:10048000B9696D1C761E0E98884782463028F0D0D8
:100490002BE00B998A4505D1200603D444F0800453
:1004A000761E18E0504606F043F808B30DF113012C
:1004B000761E44F400748B4508D2AAF130000BF884
:1004C000010B200607D5A9F1010003E0200602D4A4
:1004D00009F101008146A00502D50F99681C08604A
:1004E000B9696D1C0E9888478246002ED1DC53E016
:1004F000002E51DDBAF1650F02D0BAF1450F4BD194
:10050000A00549D5B9696D1C24F44074761E0E9877
:1005100088478246002E0CDD2B2804D0BAF12D0F1F
:1005200007D144F48074B9696D1C0E9888478246DF
:10053000761EE00501D52D2100E02B2108F8011BD6
:10054000CDF82C8021E00DF12901761E44F40074D1
:1005500088450CD2AAF1300010F0FF0088F80000A6
:1005600002D10B99884509D908F1010806E0E00598
:1005700001D5244801E042F20F708146B9696D1C33
:100580000E98884782460F980560002E04DD50467D
:1005900005F0CEFF0028D6D1F9690E988847FF20D4
:1005A0008BF8000088F800000020069007904B466A
:1005B0006A4608A906A8FFF777FEA00502D46FF0E7
:1005C00001002AE714F0240F0AD0E00714D1DDE976
:1005D00006123868031D3B600068C0E900120BE09A
:1005E000DDE9060100F008FB0146E00704D13868A8
:1005F000021D3A600068016028460EE700001440C2
:100600000000F03FF1D8FFFFF0B480EA0102D40F00
:100610004200B2EB410F02D20246084611464A00A0
:1006200042D0C30DDDB2C1F3C752AD1A202D35DA69
:10063000C1F3160141F4000204B15242C5F1200693
:1006400002FA06F12A411044B3EBD05F23D0C4B1C3
:10065000012DA0EBC35009DCF0BC4FF0004202EAD0
:10066000C352DBB200F5000000F09BBB400000F17C
:10067000807000EBC350A0F1807040EAD170490057
:1006800009E0490841EAC071A0EBC35000F5000041
:10069000400800EBC350F0BC00F07ABB614201227D
:1006A00002EB4101001BF6E7F0BC704781F000410E
:1006B000AAE780F00040A7E780EA010210B502F047
:1006C0000043400022D04A001FD0010E01EB12610E
:1006D000C0F35600C2F3560240F4000042F4000298
:1006E000A0FB022000047F39140400D0401C50EA13
:1006F000124001D44000491EC2B20C0604EBD010D7
:10070000401C4008802A02D003E0002010BD20F0E9
:100710000100002900DA0020184310BD30B480EA3F
:10072000010202F0004530F0004221F0004013D0F9
:1007300090B1C30DD40DC2F31601C0F31600E41A34
:1007400041F4000140F400027D34914201D3641C65
:1007500000E04900002C02DA30BC002070474FF462
:1007600000000023914201D3891A034340084FEA55
:100770004101F7D151B1914202D14FF0004105E062
:1007800002D24FF0010101E06FF0010103EBC45010
:10079000284430BC00F0FCBA2DE9FE4F804681EAC7
:1007A0000300C00F0C46009021F0004123F00045EB
:1007B000B8EB0200A94105D24046214690461C46AE
:1007C0000B46024623F00040104347D0270DC7F3E5
:1007D0000A00C3F30A510290401A019040286BDAD4
:1007E000C3F3130040F4801B0098924620B100230D
:1007F000D2EB030A63EB0B0B01985946C0F14002A0
:10080000504600F070FA06460D4650465946019A89
:1008100000F078FA10EB08006141002487EA1152D9
:1008200084EAE7731A4340D0009A62B3019A012A1E
:100830004FEA075215DC001B61EB02014FF000424A
:1008400002EA0752CDE90042001C41F58011324610
:100850002B4600F0E3FA03B0BDE8F08F4046214696
:10086000F9E7001B61EB0201001C41F58013001841
:100870005B412018A2F5001747EB030140EAD57051
:10088000B6196D4111E06D084FEA360645EAC075AC
:100890004FEA0752001B61EB0201001C41F5801179
:1008A00049084FEA30000019514132462B4603B047
:1008B000BDE8F04F00F0A3BA0098012240000023E9
:1008C000D0EB020263EBE073009821464FEAE0743C
:1008D000B8EB000061EB0401E9E783F000435BE75C
:1008E00081F0004158E72DE9FE4F81EA030404F04E
:1008F000004421F0004100944FF0000B23F000432E
:1009000050EA01045ED052EA03045BD0C3F30A54F8
:10091000C1F30A552C44A4F2F3340194A0FB025411
:10092000C1F3130141F48011C3F3130343F48013A3
:1009300001FB024400FB034E840A970A44EA8154F7
:1009400047EA8357A4FB076802958D0A05FB0785D4
:100950004FEA932C04FB0C542705029D4FEA0658DE
:1009600047EA1637B5EB08056EEB070C870E920EBB
:1009700047EA811742EA8312A7FB0201B6EB0B019B
:1009800064EB00042B0D43EA0C335E1844EB1C505F
:10099000DA465146E7FB0201C5F313044FEA0B3375
:1009A00043EA14534FEA0432019C43EA0603A4F1DC
:1009B0000C040294009CCDE900B400F02FFA03B0BF
:1009C000BDE8F08F00200146F9E72DE9F04D81EAFE
:1009D000030404F0004B21F0004514464FF0000AD8
:1009E00023F0004150EA050220D054EA01021DD054
:1009F000C5F30A570246C5F31303C1F31300C1F34D
:100A00000A5640F4801543F48013A7EB0608101B28
:100A1000D64608F2FD3873EB050002D308F1010851
:100A200001E092185B41B8F1000F03DA00200146A3
:100A3000BDE8F08D00204FF48011064684460EE09C
:100A4000171B73EB050705D3121B63EB0503064366
:100A50004CEA010C49084FEA300092185B4150EA19
:100A60000107EDD152EA030012D082EA040083EAC2
:100A70000501084305D0101BAB4106D2012200231B
:100A800006E000224FF0004302E06FF00102531035
:100A90001AEB06004CEB085110EB0A0041EB0B017E
:100AA000BDE8F04D00F0ABB9C10F80EAE07008443A
:100AB000CA079623002100F074B99623002211463C
:100AC00000F06FB90EB5C10F80EAE0700844CA07A4
:100AD000002140F233438DE80E000A460B4600F039
:100AE0009DF903B000BD00F0004220F00040C10DB0
:100AF000C0F3160040F400007F2901DA002070479F
:100B0000962903DCC1F19601C84001E0963988407E
:100B1000002AF4D04042704720F00040C10DC0F3DD
:100B2000160040F400007F2901DA00207047962962
:100B300003DCC1F19601C840704796398840704780
:100B4000C1F30A5210B5C1F3130140F2FF3341F46F
:100B500080119A4201DA002010BD40F233439A42DC
:100B6000A2F2334203DC5242FFF70FFB10BD90406C
:100B700010BD00F0004230F000400AD0C10D01F578
:100B80006071C0F3160042EA0151C20840071143E8
:100B9000704700200146704730B5041E71F1000413
:100BA00004DB4FF00044404264EB0101141E73F17A
:100BB000000405DB1C464FF00043524263EB040384
:100BC0008B4208BF824230BD30B5041E71F1000473
:100BD00004DB4FF00044404264EB0101141E73F14A
:100BE000000405DB1C464FF00043524263EB040354
:100BF000994208BF904230BD01F0004330B421F06B
:100C0000004150EA010206D00A0DA2F56072C1F35C
:100C10001301002A02DC30BC00207047440F44EA74
:100C2000C104C100E01830BC00EBC25000F0B0B805
:100C3000002801DBC0F10040002901DBC1F10041C7
:100C400081427047002801DBC0F10040002901DB30
:100C5000C1F100418842704730B50B460146002083
:100C60002022012409E021FA02F59D4205D303FA6E
:100C700002F5491B04FA02F52844151EA2F10102EF
:100C8000F1DC30BD2DE9F05F0546002092469B4621
:100C900088460646814640241BE028464146474692
:100CA0002246FFF772FA53465A46C01A914110D3B2
:100CB00011461846224600F016F82D1A67EB010877
:100CC0004F4622460120002100F00DF817EB0009E5
:100CD0004E41201EA4F10104DFDC484631462A467D
:100CE0004346BDE8F09F202A04DB203A00FA02F1D7
:100CF000002070479140C2F1200320FA03F319430A
:100D000090407047202A06DBCB17203A41FA02F0C8
:100D100043EAE07306E041FA02F3D040C2F1200258
:100D200091400843194670470268114413780160E6
:100D300018467047D160044951610449116200218D
:100D40001161114600F05CB9290D0008F50F00088B
:100D5000426842B1016811F8013B23B1521EC0E95B
:100D60000012184670470121C160881E7047426812
:100D70005AB1C368016843B983688B4205D0491EE4
:100D8000521CC0E90012002070474FF0FF3070473E
:100D90000029A8BF7047401C490008BF20F001008F
:100DA000704710B4B0FA80FC00FA0CF050EA01046D
:100DB00004BF10BC704749B1CCF1200421FA04F4FF
:100DC00011FA0CF118BF012121430843A3EB0C01D8
:100DD000CB1D4FEA00614FEA102042BF002010BC3B
:100DE000704700EBC35010440029A4BF10BC7047EB
:100DF000401C490008BF20F0010010BC704710B52E
:100E0000141E73F1000408DA401C41F1000192182D
:100E10005B411A4301D120F0010010BD2DE9F04DD6
:100E200092469B4611B1B1FA81F202E0B0FA80F22B
:100E300020329046FFF757FF04460F4640EA0A006B
:100E400041EA0B0153465A46084313D0114653EA70
:100E5000010019D0C8F140025046FFF796F9054647
:100E60000E46504659464246FFF73DFF084305D01F
:100E7000012004E020463946BDE8F08D00200543FE
:100E800046EAE0762C4337430A986305E40AA0EB70
:100E900008000022FD0A44EA47540A3002D5002027
:100EA0000146E9E7010510196941DDE90845001926
:100EB0006941BDE8F04DA2E770B521F0004303435E
:100EC0000CD0C1F30A550024D5EB040564EB0403F0
:100ED000D617AD1AB34102DB0020014670BD2018C1
:100EE00041EB025170BD2DE9F04D00231A461B1A4B
:100EF0008A4103DB00200146BDE8F08DC1F30A52B0
:100F0000C1F3130141F480154FF0000BD10702D15A
:100F100000186D41521E0027044640F2FF1138466A
:100F200001EB620A3E468046024600204FF48011E3
:100F3000FFF72BF9C2197141BB1846EB0100B4EB66
:100F4000030C75EB000C04D3E41A65EB000517469F
:100F50000E46241908F101006D4180463428E3DD76
:100F6000F91946EB0600091BA84103D24FF0FF32E6
:100F7000134601E0002213461BEB070046EB0A5123
:100F8000BDE8F04DFFF73BBF0EB540F23342029291
:100F90000022CDE900221346FFF740FF03B000BD59
:100FA000C1F30A52C1F3130140F2FF3341F480113F
:100FB0009A4202DA00200146704740F233439A42D7
:100FC000A2F2334202DC5242FFF7DFB8FFF78BBEDA
:100FD000064C074D06E0E06840F0010394E8070086
:100FE00098471034AC42F6D3FFF784F8C8F20008F3
:100FF000E8F20008C0B24FF4F05100F099B90000D7
:101000002DE9F34F8BB04FF0000801F10C000C46B6
:101010004FF0010B46460DF1080A0190626901216B
:1010200001989047051E2DD0252D2CD0216A884788
:10103000C0B16269012101989047216A8847002860
:10104000F7D1411E62690198904700E0761CA169C2
:101050000B988847216A88470028F7D1E1690B98E7
:101060008847DBE7A1690B9888470746A84201D16A
:10107000761CD3E7E1690B9888477F1C02D1B8F151
:10108000000F6FD047E1002762693D46394601985D
:1010900090472A2804D162690121019890470125CF
:1010A000DFF888926269012101989047A0F1300130
:1010B0000A290AD24F45E5DC07EB870100EB41071F
:1010C000303FDFD445F01005ECE7E90601D46FF0BE
:1010D00000476C280AD04C2814D0682815D06A28FC
:1010E0000DD074281CD07A281AD01DE06269012125
:1010F000019890476C2802D045F0040514E045F0B3
:1011000002050DE045F020050AE062690121019821
:101110009047682802D045F0080505E045F40065D1
:101120006269012101989047C4E9015765283DD0C3
:1011300019DC58287AD00CDC452837D004DC252867
:1011400026D0412831D131E046282FD047282CD154
:101150002CE05B2877D0612828D063287CD06428D5
:1011600023D15AE0D1E06F2848D008DC66281DD092
:1011700067281BD0692821D06E2816D127E0702857
:1011800045D0732868D0752847D078280DD14DE018
:10119000A1690B988847054625283FF469AFE169A6
:1011A0000B9888476D1C3FF46AAFB4E023466A464B
:1011B0006FF001000B99FFF70BF99FE045F040003D
:1011C0006060A80723464FF0000236D43EE0E807EF
:1011D0007FF447AF2068011D21600068290501D513
:1011E00006701BE7290701D5068017E7A90703D575
:1011F000F117C0E9006111E706600FE745F0400014
:101200006060A80723464FF0080216D41EE040F69F
:101210000E0125EA0100606016E045F040006060C4
:10122000A80723464FF00A0207D40FE045F040001C
:101230006060A80708D5234610226FF001000B99C3
:10124000AFF300805AE007E0234610226FF0010060
:101250000B99AFF3008051E04FF000094F464B4629
:10126000632802D05B2807D041E02079C00601D472
:101270000120A06001273AE06269012101989047AE
:101280005E2805D14FF001096269494601989047EF
:10129000216939B900210A46534643F82120491CE7
:1012A0000829FADBB0B3216969B9C11700EBD16233
:1012B00053110AEB830122F01F02821A01200B68EE
:1012C000904003430B6062690121019890475D28BB
:1012D000E8D1B9F1000F09D00020514651F8202083
:1012E000D24341F82020401C0828F7DB02AB2246FD
:1012F00000976FF001000B99AFF3008000280CDA23
:10130000401C08D1BBF1000F05D04FF0FF300DB0ED
:10131000BDE8F08FFFE74046F9E7E90701D108F1A2
:10132000010806444FF0000B78E60000CCCCCC0C52
:101330007F2801D9002208E0064A02EB5002C007CC
:10134000127800D1120902F00F02012090400840EB
:101350007047000050F2000870B58C1810F8015B5F
:1013600015F0070301D110F8013B2A1106D110F83E
:10137000012B03E010F8016B01F8016B5B1EF9D142
:101380002B0705D40023521E0DD401F8013BFAE7C8
:1013900010F8013BCB1A921C03E013F8015B01F833
:1013A000015B521EF9D5A142D8D3002070BD70B5A3
:1013B000044600252068806800F0010018B320680A
:1013C000806820F001002168886001F013F905466B
:1013D00013E001F00FF9401B02280ED92068806845
:1013E00000F0010048B1A06A40F01000A062E06A7D
:1013F00040F00100E062012070BD2068806800F0CC
:1014000001000028E5D10020F6E770B505466C6ABA
:10141000A06A00F05000E0B9A06A40F40070A06239
:101420002068806800F46020B0F5602F0DD1207B2B
:1014300058B9A06A20F48070A062A06A00F48050BD
:1014400018B9A06A40F00100A062204600F08EFBAF
:1014500003E0206A016B2846884770BD70B50546D9
:101460006C6AA06A40F04000A062E06A40F00400AC
:10147000E062204600F07CFB70BD70B50446656AF2
:10148000284600F074FB70BD38B5044600250020E6
:1014900000902068806800F0010078BB20688068B8
:1014A00040F0010021688860194800681949B0FBC4
:1014B000F1F0009002E00098401E00900098002893
:1014C000F9D101F097F8054619E001F093F8401BB7
:1014D000022814D92068806800F0010078B9A06A59
:1014E00040F01000A062E06A40F00100E06200BF3E
:1014F000002084F8240000BF012038BD05E02068EA
:10150000806800F001000028DFD00020F5E700002F
:101510000C00002040420F00002100F8401F4170E5
:10152000817040387047014691F8420008B90120A7
:1015300070470020FCE7024692F8420008B90120FB
:10154000704792F8400002EBC00309CBC1E90003E9
:1015500012F8403F581CC31700EB5373DB10A0EB8D
:10156000C30313709078401E9070403A0020E7E764
:10157000F0B503460C46154693F84200082801DBF7
:101580000120F0BD002211E093F84070B818C71791
:1015900000EB5777FF10A0EBC707FEB213F8360039
:1015A000A04201D10120ECE7501CC2B293F84200E6
:1015B0009042E9DC93F84110002211E093F840706A
:1015C000B818C71700EB5777FF10A0EBC707FEB29C
:1015D00013F83600A04201DD314605E0501CC2B2CE
:1015E00093F842009042E9DC00BF93F84100884242
:1015F0002BD093F84160F21DD61702EB5676F61009
:10160000A2EBC606F0B216E0421CD61702EB5676E5
:10161000F610A2EBC60603EBC60603EBC00CDCE932
:10162000007CC6E9007CC21DD61702EB5676F61088
:10163000A2EBC606F0B2CA1DD61702EB5676F6101C
:10164000A2EBC6068642DFD100BF03F8314003EBB0
:10165000C100456013F8412F501CC21700EB5272B5
:10166000D210A0EBC2021A705878401C5870413B4F
:10167000002086E730B5002424E0144850F8240008
:10168000007801281BD1042C01D0052C08D110486A
:10169000007828B900200D4951F8241008700FE097
:1016A0000C48055D0C4850F8252029460B48FFF7EB
:1016B0005FFF0020054951F82410087000BF00BFEB
:1016C000601CC4B2062CD8DB30BD0000DC1000204A
:1016D000B01000203EC20008C41000207424002076
:1016E00000BFFEE70EB50848011F0A1FCDE9002123
:1016F0000290A0F6AC70131F00F5FA62D0F8C01F7C
:1017000007F0C4FB0EBD000084100020F0B5204897
:1017100000880A2801DA0020F0BD002100221D4BBC
:101720001B480088642803DD19480088643800E0FD
:10173000002084B2204615E0174F57F82070394436
:10174000154F57F82070974202D9134F57F82020B1
:10175000114F57F820709F4202D20F4F57F8203098
:10176000471CB8B20A4F3F88B842E5DB08480088FA
:10177000001BB1FBF0F6D51A47F23050864204D96F
:10178000B5F5FA6F01D90120C6E70020C4E70000D3
:10179000AC100020FFFF0300D800002000B585B08A
:1017A00000BF1448806940F004001249886108466F
:1017B000806900F00400009000BF00BF002001908D
:1017C000029003900490881501900120029000205F
:1017D00003900320049001A9074800F06DFD012249
:1017E0001102054800F000FF642000F051FD05B033
:1017F00000BD000000100240000801401FB500209D
:1018000000900190029003904FF4807000900020AF
:101810000190012002906946014800F04DFD1FBD76
:10182000000801401FB50020009001900290039035
:101830004FF48070009001200190032003906946CE
:10184000014800F039FD1FBD0008014070B50025BA
:10185000002629E0002401E0601C84B24FF480716E
:10186000134800F0B9FE10B9B4F57A7FF4DB2820F4
:1018700005F090FE6806050E4FF480710C4800F0EC
:10188000ABFE01280FD145F00105002401E0601CEA
:1018900084B24FF48071064800F09EFE012802D108
:1018A000B4F57A7FF3DB761C082ED3DB284670BDB7
:1018B000000801402DE9FC4706460F46FFF7B2FF3E
:1018C00000224FF480713A4800F08EFE142000F0A0
:1018D000DFFC01221102364800F086FE1E2005F0D2
:1018E00059FEFFF78BFF4FF48071314800F074FE12
:1018F00000285AD1002401E0601C84B24FF48071AA
:101900002B4800F069FE10B9B4F57A7FF4DB0024AF
:1019100001E0601C84B24FF48071254800F05CFE49
:10192000012802D1B4F57A7FF3DB002504E0FFF74C
:101930008DFF0DF805006D1C052DF8DB9DF80000EE
:101940009DF8011008449DF8021008449DF803100A
:1019500008449DF80410884226D19DF80100FFF745
:10196000ACF881461349FEF7A7FE05469DF8000036
:10197000FFF7A3F880462946FEF746FE38609DF83B
:101980000300FFF79AF881460A49FEF795FE0546DF
:101990009DF80200FFF791F880462946FEF734FED5
:1019A00030600120BDE8FC8700BF0020FAE700009E
:1019B00000080140CDCCCC3D10B5024800F018FB2A
:1019C00010BD00006C11002010B5024800F010FBA3
:1019D00010BD00002413002030B590F840500124C1
:1019E000AC40C56B6C60046863604468102C04D123
:1019F0000468A2600468E16003E00468A160046810
:101A0000E26030BD704772B600BFFEE738B50246EF
:101A100000230020009000BF92F82400012801D18B
:101A2000022038BD012082F8240000BF4868072842
:101A300012D21068406B0C79641E04EB84051F24DD
:101A4000AC40A0430D796D1E05EB85050C68AC40DC
:101A500020431468606327E048680D2812D210689C
:101A6000006B0C79E41F04EB84051F24AC40A043F9
:101A70000D79ED1F05EB85050C68AC40204314681B
:101A8000206311E01068C06A0C790D3C04EB8405FA
:101A90001F24AC40A0430D790D3D05EB85050C6876
:101AA000AC4020431468E06208680A2812D310682A
:101AB000C0680C780A3C04EB44050724AC40A04302
:101AC0000D780A3D05EB45058C68AC402043146851
:101AD000E0600FE0106800690C7804EB440507240F
:101AE000AC40A0430D7805EB45058C68AC40204325
:101AF000146820610868102802D00868112827D1CE
:101B0000174C1068A0421ED11068806800F40000D5
:101B1000F0B91068806840F400001468A06008689C
:101B2000102815D10F4800680F4CB0FBF4F000EB03
:101B300080004000009002E00098401E0090009855
:101B40000028F9D104E0906A40F02000906201235F
:101B500000BF002082F8240000BF184661E70000A3
:101B6000002401400C00002040420F0070477047E5
:101B7000704700002DE9F0410446002700250026AB
:101B8000A84614B90120BDE8F081A06810B1207DFD
:101B900000B100BFA06A30B90020E06284F82400E0
:101BA000204600F089F82046FFF701FC0746A06AAE
:101BB00000F01000002873D1002F71D1A06A20F42A
:101BC000885040F00200A062E16960680843217B10
:101BD00040EA41000643A068B0F5807F02D0A068CB
:101BE000012802D14FF4807000E000200543207DE1
:101BF000012811D1207B38B9A069401E4FF4006143
:101C000041EA4030054307E0A06A40F02000A062AE
:101C1000E06A40F00100E0622068406820F469401A
:101C20002843216848602068806821490840304383
:101C300021688860A068B0F5807F02D0A068012884
:101C400002D14FF4807000E00020B0F5807F03D116
:101C5000208A401E4FEA00582068C06A20F47000B5
:101C600040EA08002168C86220688068114908407D
:101C7000B04208D10020E062A06A20F0020040F0EB
:101C80000100A06211E0A06A20F0020040F0100004
:101C9000A062E06A40F00100E062012705E0FFE792
:101CA000A06A40F01000A062012738466BE70000F0
:101CB000FDF7E1FFFE0E1FFF10B586B004460020C1
:101CC00002900390049005902249206888423ED1FA
:101CD00000BF2148806940F400701F4988610846B0
:101CE000806900F40070019000BF00BF00BF08468B
:101CF000806940F0040088610846806900F00400B3
:101D0000019000BF00BF012002900320039002A9B0
:101D1000124800F0D1FA12481249086000204860C9
:101D20000021104881608021C16089000161890023
:101D30004161202181610021C16100F027FA08B1D1
:101D4000FFF761FE00BF07482062446200BF06B093
:101D500010BD0000002401400010024000080140B6
:101D6000080002406C1100202DE9F04104460D46A8
:101D70001646002757492068884203D056492068F4
:101D8000884205D15348001D006800F4702000E02F
:101D9000002000287ED100BF94F82400012802D141
:101DA0000220BDE8F081012084F8240000BF204615
:101DB000FFF76AFB0746002F6DD1A06A40F601616C
:101DC000884340F48070A06243492068884209D16A
:101DD0004048001D006800F4702008B9012002E0AE
:101DE000002000E0012078B1A06A20F48010A062F9
:101DF0002068406800F4806000B3A06A20F40050BE
:101E000040F48050A06219E0A06A40F48010A06203
:101E100030492068884203D02F492068884205D184
:101E20002C48001D006800F4806000E0002028B10C
:101E3000A06A20F4005040F48050A062A06A00F430
:101E4000805020B1E06A20F00600E06201E000204E
:101E5000E06200BF002084F8240000BF1F48216A10
:101E600088621F48216AC8621E48216A08636FF0B1
:101E70000200216808602068806840F48070216852
:101E80008860226802F14C0133462A46206A00F03D
:101E9000B1F901E01AE014E02068806800F46020E5
:101EA000B0F5602F06D12068806840F4A00021685A
:101EB00088600CE02068806840F4801021688860A9
:101EC00005E000BF002084F8240000E00127384628
:101ED00067E7000000240140002801400B140008BF
:101EE0007B1400085D1400080146002291F82100CF
:101EF000022808D00420886300BF002081F8200059
:101F000000BF012070470868006820F00E000B68D1
:101F100018600868006820F001000B68186091F8EC
:101F2000403001209840CB6B5860012081F821009F
:101F300000BF002081F8200000BF1046E2E700004B
:101F400070B50446002594F82100022803D004202F
:101F5000A063012548E02068006820F00E00216899
:101F600008602068006820F00100216808601F49AF
:101F70002068884201D1012026E01C4914312068E4
:101F8000884201D110201FE018492831206888427A
:101F900001D1801518E015493C312068884201D1F3
:101FA000801411E0114950312068884202D14FF469
:101FB000803009E00D4964312068884202D14FF435
:101FC000801001E04FF08070084908394860012016
:101FD00084F8210000BF002084F8200000BF606B5F
:101FE00010B12046616B8847284670BD080002404A
:101FF00070B50446E06B05682068066894F84010E8
:10200000042088402840002846D006F0040000281C
:1020100042D02068006800F0200028B920680068DD
:1020200020F004002168086057492068884201D1E7
:10203000042027E0544914312068884201D140200F
:1020400020E0514928312068884201D1001519E06B
:102050004D493C312068884202D14FF4804011E064
:10206000494950312068884202D14FF4802009E06C
:10207000454964312068884202D14FF4800001E074
:102080004FF08060404908394860E06A00287AD003
:102090002046E16A884776E094F8401002208840A4
:1020A0002840A0B306F0020088B32068006800F062
:1020B000200040B92068006820F00A00216808600C
:1020C000012084F8210030492068884201D1022093
:1020D00028E02D4914312068884201D1202021E0D8
:1020E000294928312068884201D140151AE0264943
:1020F0003C312068884202D14FF4005012E022495E
:1021000050312068884203D14FF400300AE017E0D4
:102110001D4964312068884202D14FF4001001E06B
:102120004FF0007018490839486000BF002084F85B
:10213000200000BFA06A30B32046A16A884722E091
:1021400094F84010082088402840E0B106F00800CC
:10215000C8B12068006820F00E002168086094F87B
:10216000401001208840E16B48600120A06384F8A2
:10217000210000BF002084F8200000BF206B10B1B8
:102180002046216B884770BD0800024001460022AE
:1021900009B901207047164B0868C01A1423B0FB18
:1021A000F3F08000086412480838C863022081F800
:1021B00021000868026843F6F0708243D1E9010308
:1021C0001843CB6818430B6918434B6918438B6954
:1021D0001843CB69184302430868026000208863F3
:1021E000012081F82100002081F8200000BFD1E704
:1021F000080002402DE9F04104460D4616461F46F0
:102200004FF0000800BF94F82000012802D10220FE
:10221000BDE8F081012084F8200000BF94F821007F
:1022200001282CD1022084F821000020A06320681E
:10223000006820F00100216808603B4632462946CC
:102240002046FFF7C9FBE06A30B12068006840F023
:102250000E00216808600BE02068006820F0040090
:10226000216808602068006840F00A002168086062
:102270002068006840F001002168086006E000BFA7
:10228000002084F8200000BF4FF002084046BFE75E
:1022900070B5044600F0AEF906462546681C10B13C
:1022A00004480078054400BF00F0A4F9801BA84250
:1022B000FAD370BD080000202DE9F847034600223C
:1022C00094466EE14FF0010808FA02F4D1F800805C
:1022D00008EA0400A0427DD1DFF8DCA2D1F8048036
:1022E000A8EB0A09D0453AD014DCB8F1030F50D05E
:1022F00009DCB8F1000F31D0B8F1010F1CD0B8F1F2
:10230000020F49D120E0B8F1110F18D0B8F1120F27
:1023100042D11EE0B9F5881F25D006DCB9F5803F13
:1023200020D0B9F5801F37D11AE0B9F5001F18D0B9
:10233000B9F5041F30D117E0D1F80CC02DE0D1F869
:102340000C8008F1040C28E0D1F80C8008F1080C8E
:1023500023E0D1F80C8008F10C0C1EE000BF00BF98
:1023600000BF00BF00BF00BFD1F80880B8F1000F68
:1023700002D14FF0040C0BE0D1F80880B8F1010F46
:1023800003D14FF0080C1C6102E04FF0080C5C61B7
:1023900003E04FF0000C00E000BF00BFFF2801D8B1
:1023A000984601E003F104084646FF2802D84FEAA8
:1023B000820803E0A2F108084FEA88084746D6F8E9
:1023C00000804FF00F0909FA07F928EA09080CFA0A
:1023D00007F900E088E048EA0908C6F80080D1F86B
:1023E000048008F08058B8F1805F7DD100BFDFF82D
:1023F000CC81D8F8188048F00108DFF8C091C9F8FE
:102400001880C846D8F8188008F00108CDF8008078
:1024100000BF00BF4FEAB9384FEA920958F8295077
:102420004FEA82784FEA18794FF00F0808FA09F856
:1024300025EA0805DFF88881434502D14FF00008FE
:1024400016E0DFF88081434502D14FF001080FE02C
:10245000DFF87481434502D14FF0020808E0DFF84D
:102460006C81434502D14FF0030801E04FF00408AE
:102470004FEA82794FEA197908FA09F848EA05051E
:10248000DFF84C814FEA920948F82950D1F80480CE
:1024900008F48018B8F5801F0AD1DFF83881D8F821
:1024A000008048EA0008DFF82C91C9F8008009E0B4
:1024B000DFF82081D8F8008028EA0008DFF81491BE
:1024C000C9F80080D1F8048008F40018B8F5001F9E
:1024D00010D1DFF8008108F10408D8F8008048EA3C
:1024E0000008DFF8F09000E05AE009F10409C9F8AB
:1024F00000800DE0DFF8DC8008F10408D8F80080E7
:1025000028EA0008DFF8CC9009F10409C9F8008036
:10251000D1F8048008F40038B8F5003F0ED1DFF898
:10252000B480A8F10408D8F8008048EA0008DFF871
:10253000A490A9F10409C9F800800DE0DFF89480A7
:10254000A8F10408D8F8008028EA0008DFF8849091
:10255000A9F10409C9F80080D1F8048008F4803892
:10256000B8F5803F0ED1DFF86C80A8F10808D8F8E4
:10257000008048EA0008DFF85C90A9F10809C9F872
:1025800000800DE0DFF84C80A8F10808D8F8008042
:1025900028EA0008DFF83C90A9F10809C9F8008092
:1025A000521CD1F8008028FA02F8B8F1000F7FF42D
:1025B00089AEBDE8F887000000001110001002404D
:1025C00000080140000C01400010014000140140CF
:1025D0000800014008040140024693680B400BB11B
:1025E000012000E0002070470AB1016101E00B0406
:1025F0000361704701480068704700000000002038
:1026000070B504460CB9012070BD94F83D0028B99E
:10261000002084F83C00204600F0B4FD242084F81B
:102620003D002068006820F00100216808602068F3
:10263000006840F40040216808602068006820F4C9
:1026400000402168086001F00DF805465C496068AB
:10265000884206D85B48854201D2012007E000206D
:1026600005E05948854201D2012000E00020012800
:1026700000D1C9E75548B5FBF0F62068406820F066
:102680003F003043216848604D496068884201D866
:10269000701C07E04FF4967070434FF47A71B0FBF2
:1026A000F1F0401C2168096A21F03F0108432168CC
:1026B000086243496068884214D8681E616849000E
:1026C000B0FBF1F0401CC0F30B00042801D2042041
:1026D0003DE0681E61684900B0FBF1F0401CC0F3AA
:1026E0000B0034E0A06838B9681E616801EB410155
:1026F000B0FBF1F0401C0AE0681E616801EBC1020A
:1027000002EB0111B0FBF1F0401C40F48040C0F33B
:102710000B0008B901201AE0A06848B9681E61687A
:1027200001EB4101B0FBF1F0401CC0F30B000CE0E9
:10273000681E616801EBC10202EB0111B0FBF1F010
:10274000401CC0F30B0040F4804040F4004021687E
:10275000C9694CF6FF72914308432168C861D4E906
:10276000070108432168096821F0C0010843216876
:102770000860D4E9031008432168896848F2FF32F1
:102780009143084321688860D4E905010843216822
:10279000C96821F0FF0108432168C860206800680B
:1027A00040F001002168086000202064202084F8A7
:1027B0003D000020206384F83E0000BF24E70000B5
:1027C000A086010080841E0000093D0040420F00E9
:1027D0002DE9FC4704468946174698460A9E002084
:1027E0000190FFF707FF054694F83D0020286FD1C0
:1027F00019230122CD492046009502F068F910B155
:102800000220BDE8FC8700BF94F83C00012801D1FC
:102810000220F6E7012084F83C0000BF2068006831
:1028200000F0010028B92068006840F0010021682C
:1028300008602068006820F4006021680860222099
:1028400084F83D00102084F83E0000202064676278
:10285000A4F82A80608D2085B548E0622B46324678
:102860004946204601F0E4FE08B10120C9E7208D69
:1028700088B900BF0020009020684069009020685F
:102880008069009000BF00BF2068006840F40070BD
:10289000216808604BE0208D01281AD1206800686B
:1028A00020F480602168086072B600BF00200090AC
:1028B00020684069009020688069009000BF00BFD8
:1028C0002068006840F400702168086062B62EE05D
:1028D00029E1208D022819D12068006840F40060A9
:1028E0002168086072B600BF00200090206840692F
:1028F000009020688069009000BF00BF20680068D9
:1029000020F480602168086062B610E020680068EA
:1029100040F480602168086000BF002000902068BB
:102920004069009020688069009000BF00BFEBE024
:10293000208D03287ED8208D012815D12A463146C6
:10294000204602F0A0F908B101205AE7206800698A
:10295000616A0870606A401C6062208D401E20859C
:10296000608D401E6085CFE0208D02282CD133463B
:10297000002270492046009502F0A9F808B1012014
:102980003FE772B62068006840F400702168086074
:1029900020680069616A0870606A401C6062208D6E
:1029A000401E2085608D401E608562B620680069EB
:1029B000616A0870606A401C6062208D401E20853C
:1029C000608D401E60859FE03346002259492046B5
:1029D000009502F07CF808B1012012E72068006839
:1029E00020F480602168086072B620680069616A1E
:1029F0000870606A401C6062208D401E2085608DDA
:102A0000401E60854C4800681921B0FBF1F04FF47E
:102A10007A71B0FBF1F0C0EBC00000EB80000190D8
:102A200000BF0198401E01900198A8B900202063C2
:102A3000202000E038E084F83D00002084F83E00CB
:102A4000206C40F02000206462B600BF002084F8B3
:102A50003C0000BF0120D4E620684069C0F380003C
:102A60000028DED02068006840F40070216808600B
:102A700020680069616A0870606A401C6062208D8D
:102A8000401E2085608D401E608562B6206800690A
:102A9000616A0870606A401C6062208D401E20855B
:102AA000608D401E60852FE02A463146204602F0A8
:102AB000EAF808B10120A4E620680069616A08709C
:102AC000606A401C6062208D401E2085608D401E23
:102AD000608520684069C0F38000A8B1208D03287C
:102AE00005D12068006820F48060216808602068B3
:102AF0000069616A0870606A401C6062208D401E37
:102B00002085608D401E6085208D00287FF410AFE9
:102B1000202084F83D00002084F83E0000BF84F8A7
:102B20003C0000BF6DE602206BE6000002001000D2
:102B30000000FFFF040001000C0000202DE9F84315
:102B40000446894616461F46DDF82080FFF752FDF1
:102B5000054694F83D0020287ED1192301225149D1
:102B60002046009501F0B3FF10B10220BDE8F883C4
:102B700000BF94F83C00012801D10220F6E70120B3
:102B800084F83C0000BF2068006800F0010028B90C
:102B90002068006840F00100216808602068006833
:102BA00020F4006021680860212084F83D00102096
:102BB00084F83E000020206466626785608D208571
:102BC0003948E0622B4642464946204601F0CCFD9A
:102BD00008B10120CAE700BF0020009020684069CA
:102BE000009020688069009000BF00BF44E02A4642
:102BF0004146204602F08CF850B1206C042805D1E3
:102C00002068006840F40070216808600120ADE78A
:102C1000606A007821680861606A401C6062608DAB
:102C2000401E6085208D401E208520684069C0F3CD
:102C3000800070B1208D60B1606A00782168086101
:102C4000606A401C6062608D401E6085208D401E61
:102C500020852A46414600E022E0204601F004FF9C
:102C600050B1206C042805D12068006840F4007041
:102C700021680860012079E7208D0028B7D12068FD
:102C8000006840F4007021680860202084F83D004E
:102C9000002084F83E0000BF84F83C0000BF65E7D8
:102CA000022063E7020010000000FFFF2DE9FE4F45
:102CB00004460F4690469946DDE90CAB0E9E002077
:102CC0000290FFF797FC054694F83D00202872D14A
:102CD00019230122CE492046009501F0F8FE10B1DB
:102CE0000220BDE8FE8F00BF94F83C00012801D10E
:102CF0000220F6E7012084F83C0000BF206800684D
:102D000000F0010028B92068006840F00100216847
:102D100008602068006820F40060216808602220B4
:102D200084F83D00402084F83E0000202064C4F870
:102D300024A0A4F82AB0608D2085B648E0624B46F6
:102D4000424639462046CDE9006501F06DFD08B1E7
:102D50000120C6E7208D88B900BF002001902068BF
:102D60004069019020688069019000BF00BF206821
:102D7000006840F40070216808604BE0208D012855
:102D80001AD12068006820F480602168086072B65B
:102D900000BF002001902068406901902068806990
:102DA000019000BF00BF2068006840F400702168F7
:102DB000086062B62EE029E1208D022819D1206832
:102DC000006840F400602168086072B600BF00200F
:102DD000019020684069019020688069019000BFDF
:102DE00000BF2068006820F480602168086062B637
:102DF00010E02068006840F480602168086000BF2F
:102E0000002001902068406901902068806901904D
:102E100000BF00BFEBE0208D03287DD8208D012866
:102E200015D12A463146204601F02DFF08B1012078
:102E300057E720680069616A0870606A401C606238
:102E4000208D401E2085608D401E6085CFE0208D46
:102E500002282CD1334600226F492046009501F00C
:102E600036FE08B101203CE772B62068006840F4E5
:102E700000702168086020680069616A0870606AF3
:102E8000401C6062208D401E2085608D401E608544
:102E900062B620680069616A0870606A401C6062FE
:102EA000208D401E2085608D401E60859FE033464A
:102EB000002259492046009501F009FE08B1012081
:102EC0000FE72068006820F480602168086072B60F
:102ED00020680069616A0870606A401C6062208D29
:102EE000401E2085608D401E60854C480068192179
:102EF000B0FBF1F04FF47A71B0FBF1F0C0EBC00021
:102F000000EB8000029000BF0298401E02900298E1
:102F1000A8B90020206300E039E0202084F83D00BB
:102F2000002084F83E00206C40F02000206462B64F
:102F300000BF002084F83C0000BF0120D1E62068DB
:102F40004069C0F380000028DED02068006840F4AB
:102F500000702168086020680069616A0870606A12
:102F6000401C6062208D401E2085608D401E608563
:102F700062B620680069616A0870606A401C60621D
:102F8000208D401E2085608D401E60852FE02A46E2
:102F90003146204601F077FE08B10120A1E6206805
:102FA0000069616A0870606A401C6062208D401E82
:102FB0002085608D401E608520684069C0F38000D8
:102FC000A8B1208D032805D12068006820F4806016
:102FD0002168086020680069616A0870606A401CA6
:102FE0006062208D401E2085608D401E6085208D92
:102FF00000287FF410AF202084F83D00002084F8E2
:103000003E0000BF84F83C0000BF6AE6022068E68C
:10301000020010000000FFFF040001000C0000206F
:103020002DE9FC5F04460F4690469946DDE90CAB5E
:103030000E9EFFF7DFFA054694F83D0020287DD16B
:10304000192301224D492046009501F040FD10B1A1
:103050000220BDE8FC9F00BF94F83C00012801D18C
:103060000220F6E7012084F83C0000BF20680068D9
:1030700000F0010028B92068006840F001002168D4
:1030800008602068006820F4006021680860212042
:1030900084F83D00402084F83E0000202064C4F8FD
:1030A00024A0A4F82AB0608D20853548E0624B4604
:1030B000424639462046CDE9006501F065FC08B17D
:1030C0000120C6E731E02A463146204601F020FEC5
:1030D00050B1206C042805D12068006840F40070CD
:1030E000216808600120B4E7606A007821680861FF
:1030F000606A401C6062208D401E2085608D401EED
:10310000608520684069C0F3800070B1208D60B197
:10311000606A007821680861606A401C6062208DE6
:10312000401E2085608D401E6085208D0028CAD1FC
:103130002A463146204601F097FC00E01CE050B1E1
:10314000206C042805D12068006840F400702168D4
:10315000086001207DE72068006840F40070216865
:103160000860202084F83D00002084F83E0000BF65
:1031700084F83C0000BF6CE702206AE70200100000
:103180000000FFFF10B586B00446002002900390B7
:103190000490059015492068884225D100BF144845
:1031A000806940F00800124988610846806900F093
:1031B0000800019000BF00BFC020029012200390C1
:1031C0000320059002A90B48FFF776F800BF0848D6
:1031D000C06940F400100649C8610846C06900F49F
:1031E0000010019000BF00BF06B010BD00540040A9
:1031F00000100240000C01400348006803490978B0
:1032000008440149086070470000002008000020C1
:1032100010B50848006840F0100006490860032017
:1032200000F0A8F8002000F007F800F02BF80020CC
:1032300010BD00000020024070B504460E48007822
:103240004FF47A71B1FBF0F00C490968B1FBF0F56D
:10325000284600F091FC08B1012070BD102C07D267
:1032600000222146501E00F047F80548046001E0A6
:103270000120F2E70020F0E7080000200C00002009
:103280000400002008B500BF1148806940F001002B
:103290000F4988610846806900F00100009000BF76
:1032A00000BF00BF0846C06940F08050C8610846B2
:1032B000C06900F08050009000BF00BF00BF05490A
:1032C000486820F0E06040F00070486000BF08BD32
:1032D000001002400000014001460846002809DBBA
:1032E00000F01F0301229A4043099B0003F1E023F1
:1032F000C3F8002100BF70472DE9F05F80460D46FE
:103300001646002702F0A8FF074639462A463346EC
:1033100001F00700C0F1070ABAF1040F02D94FF01B
:10332000040A01E0C0F1070AD14600F1040ABAF12B
:10333000070F02D24FF0000A01E0A0F1030AD446C1
:103340004FF0010A0AFA09FAAAF1010A0AEA020A86
:103350000AFA0CFA4FF0010B0BFA0CFBABF1010B64
:103360000BEA030B4AEA0B042146404602F07CFFBD
:10337000BDE8F09F00BF00F00702064B19684FF64A
:10338000FF031940044B0B4343EA0221014B196030
:1033900000BF70470CED00E00000FA05F8B50446E8
:1033A00000260025207800F0010000286BD00027BF
:1033B0004348C06900F0805070B900BF4048C06900
:1033C00040F080503E49C8610846C06900F0805016
:1033D000009000BF00BF01273A48006800F48070E9
:1033E000B0B93848006840F4807036490860FFF78B
:1033F00001F9064606E0FFF7FDF8801B642801D9B5
:103400000320F8BD2F48006800F480700028F2D037
:103410002B48006A00F440752DB3A08800F440707A
:10342000A84220D02648006A20F440750120264991
:103430000860002008602248056205F0010090B194
:10344000FFF7D8F8064608E0FFF7D4F8801B41F2F2
:103450008831884201D90320D3E71948006A00F077
:1034600002000028F0D01648006A20F4407061681D
:10347000084313490862012F04D10846C06920F0AF
:103480008050C86100BF207800F00200022807D1F8
:103490000B48406820F44040A16808430849486050
:1034A000207800F01000102807D10548406820F46B
:1034B0008000E1680843024948600020A1E700005D
:1034C00000100240007000404004424270B50446C3
:1034D0000D460CB9012070BD5A48006800F0070085
:1034E000A8420ED25748006820F0070028435549EB
:1034F00008600846006800F00700A84201D00120DB
:10350000E9E7207800F0020002281DD1207800F0C1
:103510000400042805D14C48406840F4E0604A4962
:103520004860207800F00800082805D14648406827
:1035300040F46050444948604348406820F0F0003F
:10354000A168084340494860207800F0010078B342
:103550006068012806D13C48006800F4003090B94A
:103560000120B8E76068022806D13748006800F0FB
:10357000007040B90120AEE73348006800F0020057
:1035800008B90120A7E73048406820F003006168CF
:1035900008432D494860FFF72DF8064609E0FFF77C
:1035A00029F8801B41F28831884202D9032092E732
:1035B00007E02548406800F00C006168B0EB810F1F
:1035C000EDD12048006800F00700A8420ED91D4840
:1035D000006820F0070028431A4908600846006880
:1035E00000F00700A84201D0012074E7207800F025
:1035F0000400042807D11448406820F4E060E16822
:10360000084311494860207800F00800082808D1D4
:103610000D48406820F46050216940EAC1000A4921
:10362000486000F03FF808494968C1F30311074AB0
:10363000515CC8400649086006480068FFF7FCFD79
:10364000002048E7002002400010024026C2000887
:103650000C000020040000200148006870470000B2
:103660000C00002000B5FFF7F7FF04494968C1F3DB
:103670000221034A515CC84000BD00000010024016
:1036800036C2000800B5FFF7E7FF04494968C1F3F7
:10369000C221034A515CC84000BD00000010024036
:1036A00036C2000870B5002100220024002300204B
:1036B000134D696801F00C05F5B1042D02D0082DF9
:1036C00019D101E00F4819E00F4DC1F38346AB5DFE
:1036D00001F4803555B10A4D6D68C5F340450B4E78
:1036E000725D084D5D43B5FBF2F402E0084D03FB4B
:1036F00005F4204602E000BF024800BF00BF70BDD5
:103700000010024000127A0014C2000824C200080F
:1037100000093D00F8B504460CB90120F8BD207839
:1037200000F00100002878D0F848406800F00C0054
:1037300004280CD0F548406800F00C00082811D18E
:10374000F248406800F48030B0F5803F0AD1EF487D
:10375000006800F4003000285FD0606800285CD169
:103760000120DBE700BF6068B0F5803F06D1E74885
:10377000006840F48030E549086028E0606858B986
:10378000E248006820F48030E0490860084600689C
:1037900020F4802008601AE06068B0F5A02F0BD1FB
:1037A000DA48006840F48020D8490860084600687C
:1037B00040F4803008600AE0D448006820F480308B
:1037C000D24908600846006820F48020086000BFE5
:1037D000606888B1FEF70EFF054606E0FEF70AFFB7
:1037E000401B642801D9032098E7C848006800F40A
:1037F00000300028F2D010E0FEF7FCFE054606E09F
:10380000FEF7F8FE401B642801D9032086E7BF4875
:10381000006800F400300028F2D1207800F00200A7
:10382000022857D1B948406800F00C0050B1B748A1
:10383000406800F00C00082818D1B448406800F433
:10384000803098B9B148006800F0020020B12069CA
:10385000012801D0012061E7AC48006820F0F800A1
:10386000616940EAC100A949086033E02069E8B114
:103870000120A7490860FEF7BDFE054606E0FEF7F9
:10388000B9FE401B022801D9032047E79F48006882
:1038900000F002000028F2D09C48006820F0F800F8
:1038A000616940EAC1009949086013E00020984925
:1038B0000860FEF79FFE054606E0FEF79BFE401BF4
:1038C000022801D9032029E79048006800F002008F
:1038D0000028F2D1207800F0080008282DD1A06936
:1038E000B8B101208B490860FEF784FE054606E06A
:1038F000FEF780FE401B022801D903200EE7834813
:10390000406A00F002000028F2D0012002F07AF8AC
:1039100013E000207F490860FEF76CFE054606E0D4
:10392000FEF768FE401B022801D90320F6E677481F
:10393000406A00F002000028F2D1207800F0040074
:10394000042873D100277148C06900F0805070B915
:1039500000BF6E48C06940F080506C49C86108469D
:10396000C06900F08050009000BF00BF01276A4886
:10397000006800F48070B0B96748006840F4807057
:1039800065490860FEF736FE054606E0FEF732FEA2
:10399000401B642801D90320C0E65F48006800F49A
:1039A00080700028F2D000BFE068012806D1574897
:1039B000006A40F001005549086227E0E06858B904
:1039C0005248006A20F00100504908620846006A27
:1039D00020F00400086219E0E06805280BD14B488C
:1039E000006A40F00400494908620846006A40F055
:1039F000010008620AE04548006A20F001004349DE
:103A000008620846006A20F00400086200BFE0680F
:103A1000A0B1FEF7EFFD054609E0FEF7EBFD401B08
:103A200041F28831884202D9032077E622E0374804
:103A3000006A00F002000028EFD012E0FEF7DAFD85
:103A4000054608E0FEF7D6FD401B41F2883188426A
:103A500001D9032062E62D48006A00F00200002828
:103A6000F0D1012F05D12948C06920F080502749A5
:103A7000C86100BFE069C8B32448406800F00C008A
:103A8000082860D0E069022848D100202049086653
:103A9000FEF7B0FD054606E0FEF7ACFD401B022830
:103AA00001D903203AE61948006800F000700028A8
:103AB000F2D1206AB0F5803F07D11448406820F465
:103AC0000030A168084311494860D4E9080108435F
:103AD0000E49496821F4741108430C4948600120DB
:103AE0000B490866FEF786FD054607E03DE0FEF758
:103AF00081FD401B022801D903200FE6034800681E
:103B000000F000700028F2D02FE00000001002400A
:103B100000004242800442420070004000201449EC
:103B20000866FEF767FD054606E0FEF763FD401BED
:103B3000022801D90320F1E50E48006800F000706A
:103B40000028F2D111E0E069012800D1E6E509483A
:103B5000466806F48031206A814204D106F470116F
:103B6000606A814201D00120D8E50020D6E500003E
:103B7000000042420010024070B504462546681E0F
:103B8000B0F1807F01D301200FE0681E4FF0E021EB
:103B900048610F214FF0FF3002F066FB00204FF02C
:103BA000E021886107200861002070BD30B5024621
:103BB0000B4600BF92F83C00012801D1022030BD25
:103BC000012082F83C0000BF022082F83D0010680E
:103BD00044681068816824F0700418680443106811
:103BE0004460104D1068A8420BD01068B0F1804FAF
:103BF00007D00D4D1068A84203D00C4D1068A842A4
:103C000005D121F0800158680143106881600120CE
:103C100082F83D0000BF002082F83C0000BF00BFDA
:103C2000CDE70000002C01400004004000080040E7
:103C300010B504460CB9012010BD94F83D0028B918
:103C4000002084F83C00204600F026F8022084F88A
:103C50003D00211D206801F031FF012084F846005D
:103C600000BF84F83E0001213F200155402001554E
:103C70004120015500BF00BF012084F842004320CD
:103C80000155442001554520015500BF012084F80D
:103C90003D000020D0E7000008B50168B1F1804F79
:103CA0000DD100BF0649C96941F00101044AD16143
:103CB0001146C96901F00101009100BF00BF08BDB4
:103CC00000100240014691F83D00012801D001207A
:103CD0007047022081F83D00124B086898420BD0D3
:103CE0000868B0F1804F07D00F4B0868984203D0A6
:103CF0000E4B086898420CD10868806800F00702F3
:103D0000062A0CD00868006840F001000B681860B3
:103D100005E00868006840F001000B6818600020AA
:103D2000D6E70000002C01400004004000080040DD
:103D30002DE9F04104460D46002700BF94F83C00F1
:103D4000012802D10220BDE8F081012084F83C0066
:103D500000BF022084F83D002068866826F07706C0
:103D600026F47F46206886602868502833D00CDC13
:103D7000202850D004DC00284BD0102851D149E035
:103D8000302849D040284CD139E060282DD0702807
:103D900007D0B0F5805F03D0B0F5005F41D10DE0F2
:103DA00041E0D5E902136A68206801F0C9FE206885
:103DB000866846F077062068866034E0D5E902130D
:103DC0006A68206801F0BCFE2068806840F480408A
:103DD0002168886027E0EA686968206801F0C4FE0D
:103DE0005021206801F0B7FE1DE0EA68696820688C
:103DF00001F0CDFE6021206801F0ADFE13E0EA681D
:103E00006968206801F0B0FE4021206801F0A3FE3F
:103E100009E000BF00BF00BF2968206801F09BFED9
:103E200001E0012700BF00BF012084F83D0000BF72
:103E3000002084F83C0000BF384684E7F8B504460B
:103E40000D46164694F8420020282DD105B10EB932
:103E50000120F8BD0120206300206063324629461E
:103E6000204602F09BF80746206B012819D100BFBD
:103E70000020009020680068009020684068009052
:103E800000BF00BF00BF00BF21680C3151E8001F18
:103E900041F0100021680C3141E80002002AF3D102
:103EA00000E001273846D4E70220D2E770B5054686
:103EB0000C461049286888421AD1284600F024F898
:103EC00022460D490D4808F024F84FF480610A4855
:103ED000FCF784F94FF4806207490948FFF7AEFF09
:103EE00008480068006820F0040006490968086076
:103EF00070BD000000440040E0130020E0230020DB
:103F0000941200202413002070B504460025206878
:103F10004069C0F3C01594F84100212817D1B5B10C
:103F200000BF00BF2168143151E8001F21F080005C
:103F30002168143141E80002002AF3D100BFA06BD0
:103F400010B1A06BFDF7D0FF204601F018FF2068EC
:103F50004069C0F3801594F84200222817D1B5B10A
:103F600000BF00BF2168143151E8001F21F040005C
:103F70002168143141E80002002AF3D100BFE06B50
:103F800010B1E06BFDF7B0FF204601F0B2FE00205B
:103F900070BD70472DE9F84F044620680568206819
:103FA000C668206847694FF00009CA4605F00F0946
:103FB000B9F1000F0AD105F0200038B106F0200059
:103FC00020B1204601F0EEFEBDE8F88FB9F1000FF8
:103FD0007BD007F0010018B906F49070002874D067
:103FE00005F0010030B106F4807018B1606C40F04B
:103FF0000100606405F0040030B107F0010018B161
:10400000606C40F00200606405F0020030B107F01F
:10401000010018B1606C40F00400606405F0080015
:1040200048B106F0200010B907F0010018B1606C2B
:1040300040F008006064606C002845D005F0200066
:1040400028B106F0200010B1204601F0ABFE206838
:104050004069C0F3801A606C00F0080010B9BAF132
:10406000000F2CD0204601F044FE2068406900F08B
:10407000400000B300BF00BF2168143151E8001FA9
:1040800021F040002168143141E80002002AF3D1F8
:1040900000BFE06B50B17748E16B4863E06BFDF720
:1040A0004FFF88B1E06B416B88470DE02046FFF77A
:1040B00070FF09E009E02046FFF76BFF04E02046AF
:1040C000FFF767FF002060647EE7206B012877D14F
:1040D00005F01000002873D006F010000028FAD078
:1040E00000BF0020009020680068009020684068B1
:1040F000009000BF00BF2068406900F04000002829
:104100005FD0E06B006840681FFA80F8B8F1000FDC
:1041100055D0A08D404552DDA4F82E80E06B80691B
:10412000202843D000BF00BF21680C3151E8001F98
:1041300021F4807021680C3141E80002002AF3D19B
:1041400000BF00BF00BF2168143151E8001F21F0FB
:1041500001002168143141E80002002AF3D100BFB8
:1041600000BF00BF2168143151E8001F21F040005A
:104170002168143141E80002002AF3D100BF202059
:1041800084F842000020206300BF00BF21680C318A
:1041900051E8001F21F0100021680C3141E80002B5
:1041A000002AF3D100BFE06BFDF79EFE02206063A2
:1041B000A08DE28D801A81B22046FFF777FE03E7DB
:1041C00042E0A08DE18D401A1FFA80F8E08DD0B357
:1041D000B8F1000F37D000BF00BF21680C3151E8A3
:1041E000001F21F4907021680C3141E80002002A80
:1041F000F3D100BF00BF00BF2168143151E8001F98
:1042000021F001002168143141E80002002AF3D1B5
:1042100000BF202084F842000020206300BF00BFC0
:1042200021680C3151E8001F21F0100021680C3189
:1042300041E80002002AF3D100BF0220606341463A
:104240002046FFF733FEBFE605F0800030B106F0F0
:10425000800018B1204601F025FFB5E605F04000CA
:1042600030B106F0400018B1204601F078FDABE611
:1042700000BFA9E6B75B000810B504460CB90120E1
:1042800010BDA06900B100E000BF94F8410028B95A
:10429000002084F84000204600F02AF8242084F80A
:1042A00041002068C06820F400502168C8602046A2
:1042B00001F0F6FD2068006920F490402168086153
:1042C0002068406920F02A00216848612068C068A1
:1042D00040F400502168C86000206064202084F809
:1042E000410084F842000020606300BFC8E700007E
:1042F00010B586B00446002002900390049005900B
:1043000063492068884237D100BF6248806940F421
:104310008040604988610846806900F480400190CF
:1043200000BF00BF00BF0846806940F004008861FC
:104330000846806900F00400019000BF00BF4815E6
:104340000290022003900320059002A95248FDF735
:10435000B3FF4FF48060029000200390049002A904
:104360004D48FDF7A9FF002201212520FEF7C4FFDB
:104370002520FEF7B1FF88E048492068884251D1E6
:1043800000BF4448C06940F400304249C861084653
:10439000C06900F40030019000BF00BF00BF0846B4
:1043A000806940F0040088610846806900F00400DC
:1043B000019000BF00BF0420029002200390032060
:1043C000059002A93448FDF777FF082002900020ED
:1043D0000390049002A93048FDF76EFF3048314940
:1043E00008600020486000212E4881608021C16063
:1043F00000210161416181614FF40051C161FDF70C
:10440000C5FE08B1FDF7FFFA00BF2648E06344622D
:1044100000BF002201212620FEF76EFF2620FEF7B6
:104420005BFF32E02049206888422ED100BF194846
:10443000C06940F480201749C8610846C06900F48B
:104440008020019000BF00BF00BF0846806940F097
:10445000080088610846806900F00800019000BFEC
:1044600000BF08150290022003900320059002A9C6
:104470000E48FDF721FF4FF40060029000200390EA
:10448000049002A90948FDF717FF06B010BD00000F
:104490000038014000100240000801400044004084
:1044A0006C0002402413002000480040000C014032
:1044B00070B504460D46164694F8420020280BD1EC
:1044C00005B10EB9012070BD002020633246294697
:1044D000204601F0C7FDF6E70220F4E710B50446D8
:1044E0000B492068884212D10A4800680A490860CE
:1044F0000A4801780A4802880088401C084B188046
:1045000008488154012205490748FFF7D1FF10BD33
:104510000038014000000020F8100020F4100020B6
:10452000F6100020B82400204C12002070472DE91E
:10453000F84F04460E46174699464FF0000A94F885
:104540004100202850D106B117B90120BDE8F88FED
:1045500000206064212084F84100FEF74BF8824679
:10456000A784E784A068B0F5805F04D1206910B902
:104570000025B04602E035464FF000081EE05346E5
:10458000002280212046CDF8009001F0BBFD20B133
:10459000202084F841000320D8E745B9B8F800008E
:1045A000C0F308002168486008F1020803E0287899
:1045B000216848606D1CE08C401EE084E08C00287F
:1045C000DDD15346002240212046CDF8009001F075
:1045D00099FD20B1202084F841000320B6E7202077
:1045E00084F841000020B1E70220AFE7704700BF28
:1045F000FEE7014608684069C0F38020B0B16FF45F
:1046000080600A68506100200863202081F83D0026
:10461000002081F83E00086C40F00400086400BFF0
:10462000002081F83C0000BF012070470020FCE71B
:104630002DE9F84304460D4690461E46E76A206879
:10464000006840F4806021680860082F04D0012FC2
:1046500002D017F5803F06D12068006840F48070D2
:104660002168086008E0206B112805D120680068E7
:1046700040F4807021680860434600224FF0011129
:104680002046009600F023FA60B12068006800F42C
:104690008070B0F5807F02D14FF400702064032059
:1046A000BDE8F8832069B0F5804F05D1E8B240F04D
:1046B00001002168086149E005F44070F02141EAF9
:1046C000E01021680861334642462649204600F042
:1046D0005DFA08B10120E3E7E8B2216808613346DA
:1046E00042462049891F204600F050FA08B10120B7
:1046F000D6E700BF00200090206840690090206845
:104700008069009000BF00BF2068006840F480709E
:1047100021680860434600224FF0011120460096B0
:1047200000F0D5F958B12068006800F48070B0F549
:10473000807F02D14FF4007020640320B0E705F4BD
:104740004070F12141EAE010216808613346424699
:104750000449891F204600F019FA08B101209FE79B
:1047600000209DE7080001002DE9F84304460D46AE
:1047700017469846E66A082E04D0012E02D016F598
:10478000803F06D12068006840F48070216808608E
:1047900008E0206B122805D12068006840F4807082
:1047A000216808603B4600224FF001112046CDF8F9
:1047B000008000F08CF960B12068006800F480701F
:1047C000B0F5807F02D14FF4007020640320BDE873
:1047D000F8832069B0F5804F04D105F0FE00216810
:1047E000086112E005F44070F02141EAE010216810
:1047F000086143463A460B49204600F0C7F908B124
:104800000120E4E7E8B22168086143463A460549D9
:10481000891F204600F0BAF908B10120D7E700202F
:10482000D5E70000080001002DE9F84304460F46D3
:1048300015469946DDE908862068006840F48060E6
:10484000216808602068006840F480702168086072
:10485000434600224FF001112046009600F037F940
:1048600060B12068006800F48070B0F5807F02D1EC
:104870004FF4007020640320BDE8F88307F0FE00C9
:1048800021680861334642463E49204600F07EF9E1
:1048900008B10120F0E700BF0020009020684069C7
:1048A000009020688069009000BF00BF32464146FA
:1048B000204600F02DFA50B1206C042805D1206864
:1048C000006840F40070216808600120D4E7B9F165
:1048D000010F03D1E8B22168086117E0C5F3072092
:1048E0002168086132464146204600F011FA50B175
:1048F000206C042805D12068006840F4007021680D
:1049000008600120B8E7E8B22168086132464146F4
:10491000204600F0FDF950B1206C042805D1206834
:10492000006840F40070216808600120A4E7206856
:10493000006840F4807021680860434600224FF010
:1049400001112046009600F0C2F858B120680068B6
:1049500000F48070B0F5807F02D14FF400702064C5
:10496000032089E7F8B240F001002168086133466E
:1049700042460449204600F009F908B101207BE7CE
:10498000002079E7020001002DE9F843044688463B
:1049900015469946DDE908672068006840F4807094
:1049A00021680860334600224FF00111204600972D
:1049B00000F08DF860B12068006800F48070B0F5F8
:1049C000807F02D14FF4007020640320BDE8F8839B
:1049D00008F0FE00216808613B4632462149204626
:1049E00000F0D4F808B10120F0E700BF00200090EB
:1049F00020684069009020688069009000BF00BF77
:104A00003A463146204600F083F950B1206C042824
:104A100005D12068006840F400702168086001201A
:104A2000D4E7B9F1010F03D1E8B22168086117E0BA
:104A3000C5F30720216808613A463146204600F058
:104A400067F950B1206C042805D12068006840F453
:104A50000070216808600120B8E7E8B221680861A9
:104A60000020B3E70200010070B504460D4616466B
:104A700025E02046FFF7BDFD08B1012070BD681C90
:104A8000E8B1FDF7B7FD801BA84200D8BDB920688A
:104A90004069C0F3800090B900202063202084F892
:104AA0003D00002084F83E00206C40F0200020648F
:104AB00000BF002084F83C0000BF0120DEE7206832
:104AC0004069C0F380000028D3D00020D6E72DE94C
:104AD000F04104460D4617461E46DDF8188038E0C2
:104AE000701CA8B3FDF786FDA0EB0800B04200D80B
:104AF00076BBC5F3074001280AD120684069A9B2F6
:104B00000840A9B2884201D101200BE0002009E051
:104B100020688069A9B20840A9B2884201D1012069
:104B200000E00020B84214D100202063202084F847
:104B30003D00002084F83E00206C40F020002064FE
:104B400000BF002084F83C0000BF0120BDE8F081D8
:104B5000FFE7C5F3074001280AD120684069A9B2E0
:104B60000840A9B2884201D101200BE0002009E0F1
:104B700020688069A9B20840A9B2884201D1012009
:104B800000E00020B842ABD00020DFE72DE9F04183
:104B900004460D4616461F4658E020684069C0F39B
:104BA0008020E8B12068006840F400702168086047
:104BB0006FF480602168486100202063202084F821
:104BC0003D00002084F83E00206C40F0040020648A
:104BD00000BF002084F83C0000BF0120BDE8F08148
:104BE000701C90B3FDF706FDC01BB04200D866BB39
:104BF000C5F3074001280AD120684069A9B20840DE
:104C0000A9B2884201D101200BE0002009E0206810
:104C10008069A9B20840A9B2884201D1012000E010
:104C2000002090B900202063202084F83D0000205F
:104C300084F83E00206C40F02000206400BF00207B
:104C400084F83C0000BF0120C8E7FFE7C5F3074038
:104C500001280AD120684069A9B20840A9B2884257
:104C600001D101200BE0002009E020688069A9B291
:104C70000840A9B2884201D1012000E000200028AC
:104C80008BD00020AAE770B504460D46164637E0E3
:104C900020684069C0F30010A0B16FF010002168D7
:104CA000486100202063202084F83D00002084F823
:104CB0003E00206C206400BF002084F83C0000BF50
:104CC000012070BDFDF796FC801BA84200D8BDB93D
:104CD00020684069C0F3801090B900202063202034
:104CE00084F83D00002084F83E00206C40F0200055
:104CF000206400BF002084F83C0000BF0120E0E7F2
:104D000020684069C0F380100028C1D00020D8E797
:104D100070B504460D46164625E02046FFF769FCAF
:104D200008B1012070BD681CE8B1FDF763FC801B71
:104D3000A84200D8BDB920684069C0F3C01090B93E
:104D400000202063202084F83D00002084F83E00ED
:104D5000206C40F02000206400BF002084F83C005C
:104D600000BF0120DEE720684069C0F3C0100028C2
:104D7000D3D00020D6E7000010B500200A49086013
:104D800000F09CF800200949C1F8B801022002F0A7
:104D900001FC012004490860022002F0FBFB002016
:104DA0000249C1F8BC0110BDBC81214200802142F2
:104DB00000B585B000BF1048806940F008000E497A
:104DC00088610846806900F00800009000BF00BFBD
:104DD0004FF440400190012002900320049001A96B
:104DE0000648FDF769FA0120054908600549C1F840
:104DF000B80105B000BD000000100240000C0140E9
:104E0000BC8121420080214210B500200A4908607F
:104E100000F054F801200949C1F8B801022002F05D
:104E2000B9FB012004490860022002F0B3FB002016
:104E30000249C1F8BC0110BDBC8121420080214261
:104E400070B50546002400F027F8002616E0002083
:104E50000F490860022002F09DFB01200D49C1F8B6
:104E6000BC016006040E0A488438006808B1601C62
:104E7000C4B2012002F08EFB701CC6B2082EE6DB25
:104E800015B9FFF7C1FF01E0FFF776FF204670BDBF
:104E9000BC812142008021421FB54FF48040009028
:104EA00003200390002001900120029069460248EF
:104EB000FDF702FA1FBD0000000C01401FB54FF4C2
:104EC0008040009003200390012001906946024831
:104ED000FDF7F2F91FBD0000000C014070B504465B
:104EE000FFF7ECFF00200F490860002517E0E009FC
:104EF0000C49091F08606006040E022002F04AFBFC
:104F000001200949C1F8BC01022002F043FB002046
:104F100004490860022002F03DFB681CC5B2082D60
:104F2000E5DB70BDBC8121420080214210B5FFF756
:104F3000C5FF0120094908600949C1F8BC010420E6
:104F400002F028FB002005490860042002F022FB43
:104F500000200349C1F8BC0110BD0000B881214206
:104F60000080214210B5FFF7A9FF00200849086022
:104F70000849C1F8B801042002F00CFB01200449E3
:104F800008600449C1F8B801042002F003FB10BD19
:104F9000BC8121420080214210B50024FFF77CFF34
:104FA00001200E49086002F0F5FA01200C49C1F811
:104FB000BC0102F0EFFA07E0601CC4B2FA2C03DD7A
:104FC000FFF7D0FF012010BD04488038006800289A
:104FD000F2D10249091D086000BFF4E7B8812142FF
:104FE0000080214200B585B000BF2448806940F0B0
:104FF0000800224988610846806900F00800009096
:1050000000BF00BF4FF4005001900020029001A9A2
:105010001B48FDF751F9FFF7CBFE00F033F8C02134
:10502000022003F0B2FD0021032003F0AEFD0021B9
:10503000042003F0AAFD0021052003F0A6FD0021B5
:10504000062003F0A2FD0F21082003F09EFD03219E
:10505000092003F09AFD27210A2003F096FD3F2145
:105060000C2003F092FD3F210D2003F08EFD7F21E7
:10507000102003F08AFD05B000BD000000100240C2
:10508000000C014010B54021092003F07EFD4021B5
:10509000092003F07AFD10BD2DE9FC4104460D46C0
:1050A00016466B4606223B21682000F05BF8074657
:1050B000BFB99DF801009DF8001040EA012000B240
:1050C00020809DF803009DF8021040EA012000B204
:1050D00028809DF805009DF8041040EA012000B2E8
:1050E00030803846BDE8FC812DE9FC4104460D4680
:1050F00016466B4606224321682000F033F8074627
:10510000BFB99DF801009DF8001040EA012000B2EF
:1051100020809DF803009DF8021040EA012000B2B3
:1051200028809DF805009DF8041040EA012000B297
:1051300030803846BDE8FC8110B500216B2000F0BE
:1051400033F80721192000F02FF806211A2000F06B
:105150002BF818211B2000F027F818211C2000F044
:1051600023F810BD7FB582B0044615461E464FF0A9
:10517000FF306100012303AA00900A48FDF7DEFC1E
:1051800010B1012006B070BD4FF0FF3061002B461A
:10519000324600900348FDF71BFB08B10120F1E700
:1051A0000020EFE7B01100207CB504460D468DF8D5
:1051B00004408DF805504FF0FF30022301AAD021A2
:1051C00000900448FDF7BAFC08B101207CBD002026
:1051D000FCE70000B01100200EB500200090019007
:1051E0000290134813490860002112488160012190
:1051F0000173002101754FF46021C16100200D4948
:10520000486001210B480161FCF7B4FC08B1FCF7D0
:10521000FAFB0020009001200190002002906946D6
:105220000448FCF7F3FB08B1FCF7EDFB0EBD0000F2
:10523000002401403C11002008B500BF0E48406921
:1052400040F001000C4948610846406900F0010047
:10525000009000BF00BF002211460B20FEF74CF863
:105260000B20FEF739F8002211461020FEF744F813
:105270001020FEF731F808BD0010024000B585B0DF
:105280000020019002900390049000BF254880699F
:1052900040F02000234988610846806900F0200022
:1052A000009000BF00BF00BF0846806940F00400C6
:1052B00088610846806900F00400009000BF00BFCC
:1052C00000BF0846806940F0080088610846806990
:1052D00000F00800009000BF00BF0122C02112486A
:1052E000FDF782F901224FF440411048FDF77CF9A7
:1052F000C02001900120029003900220049001A997
:105300000948FCF7D9FF4FF440400190112002906A
:10531000012003900220049001A90448FCF7CCFF6F
:1053200005B000BD0010024000080140000C014023
:1053300010B50B480B4908600B484860002109482C
:105340008160C1604FF48041016100214161816150
:10535000C1610162FDF754F908B1FCF754FB10BDBF
:1053600000540040B0110020801A060000B587B03C
:1053700000200390049005900690019002904FF059
:10538000804014490860472048600021114881602E
:105390004FF6FF71C160002101618161FEF748FC99
:1053A00008B1FCF730FB4FF48050039003A9094883
:1053B000FEF7BEFC08B1FCF726FB0020019002902E
:1053C00001A90448FEF7F2FB08B1FCF71CFB07B08B
:1053D00000BD00000412002010B50B480B49086006
:1053E0004FF4E1304860002108488160C1600161EC
:1053F0000C21416100218161C161FEF73DFF08B1CF
:10540000FCF701FB10BD0000003801404C120020E9
:1054100010B50B480B4908604FF416504860002146
:1054200008488160C16001610C21416100218161F6
:10543000C161FEF721FF08B1FCF7E5FA10BD0000DD
:10544000004400409412002010B50B480B4908603E
:105450004FF4E1304860002108488160C16001617B
:105460000C21416100218161C161FEF705FF08B196
:10547000FCF7C9FA10BD000000480040DC12002013
:1054800000BFFEE700BFFEE710B500F079F82CA2E0
:105490000421012000F080FA2CA20321022000F058
:1054A0007BFA00242FE0204600F0F4F90A2C06DAFB
:1054B000012322460821042000F0CAF90EE0642CE2
:1054C00006DA022322460821042000F0C1F905E093
:1054D000032322460721042000F0BAF90A2C01DB3D
:1054E000022000E001200830642C01D1012200E0FC
:1054F000002281182522042000F070F91420FCF706
:10550000C7FE601CC4B2642CCDDD4FF4FA70FCF70A
:10551000BFFE00F035F811A20121084600F03CFA68
:1055200012A20121032000F037FA4FF4FA60FCF7D1
:10553000AFFE00F025F8FF201049087010BD0000F4
:1055400053595354454D20424F4F5400496E69748E
:1055500069616C697A652E2E2E0000002048454C4A
:105560004C4F204341505441494E000053797374CD
:10557000656D20526561647921000000BD10002036
:1055800070B500240EE00021204600F015F900253A
:1055900004E0002000F024FA681CC5B2802DF8DB7E
:1055A000601CC4B2082CEEDB70BD2DE9F04107464B
:1055B0000D4616463946284600F0FEF8002405E060
:1055C00016F8140000F00CFA601CC4B2102CF7DBC3
:1055D000691CC8B2394600F0EFF8002406E061000B
:1055E000491C705C00F0FCF9601CC4B2102CF6DBA6
:1055F000BDE8F08170B50546002406E02022214672
:10560000284600F0EBF8601CC4B2102CF6DB70BD2D
:1056100070B50546002413E08020204100EA050211
:1056200080211048FCF7E0FF012240210D48FCF7E3
:10563000DBFF002240210B48FCF7D6FF601CC4B200
:10564000082CE9DB012280210648FCF7CDFF01226E
:1056500040210448FCF7C8FF002240210148FCF724
:10566000C3FF70BD0008014010B501228021094828
:10567000FCF7BAFF012240210648FCF7B5FF0022E3
:1056800080210448FCF7B0FF002240210148FCF7CC
:10569000ABFF10BD0008014010B500228021074873
:1056A000FCF7A2FF012240210448FCF79DFF0122E4
:1056B00080210248FCF798FF10BD0000000801405F
:1056C00070B5002406E0002500E06D1CB5F57A7F7A
:1056D000FBD3641CB4F57A7FF5D3AE2000F070F9EB
:1056E000D52000F06DF9802000F06AF9A82000F0C4
:1056F00067F93F2000F064F9D32000F061F9002041
:1057000000F05EF9402000F05BF9A12000F058F9AC
:10571000C82000F055F9DA2000F052F9122000F00C
:105720004FF9812000F04CF9CF2000F049F9D92041
:1057300000F046F9F12000F043F9DB2000F040F9D9
:10574000302000F03DF9A42000F03AF9A62000F046
:1057500037F98D2000F034F9142000F031F9AF2032
:1057600000F02EF9FFF70CFF70BD10B502460120C6
:1057700000E050430B1EA1F10101FAD110BD000061
:1057800010B50B4800780B49097888420FD00120EA
:10579000FFF730FF0220FFF72DFF0320FFF72AFF5E
:1057A0000420FFF727FF024800780249087010BD67
:1057B000BC100020BD10002070B505460C4645F019
:1057C000B00000F0FDF8102141EA141000F0F8F8E4
:1057D00004F00F0000F0F4F870BD00002DE9F04176
:1057E00005460E461746721ED206110E6A1E520656
:1057F000100EFFF7E1FF002409E0A7F12001134A92
:1058000002EB0111085D00F0EBF8601CC4B2082C3B
:10581000F3DB721ED206110E6A1E012303EB420255
:10582000D0B2FFF7C9FF00240BE0A7F12001074A1F
:1058300002EB011204F10801505C00F0D1F8601C89
:10584000C4B2082CF1DBBDE8F081000084CF000871
:105850002DE9F04780460E4617461D46002415E008
:10586000281B411E0A20FFF780FFB7FBF0F00A213A
:10587000B0FBF1F201FB120000F130093019C1B2A6
:105880004A464046FFF7AAFF601CC4B2AC42E7DBC1
:10589000BDE8F0872DE9F04105460E266427642D0A
:1058A00000DD642531460520FFF786FF002404E073
:1058B000FF2000F095F8601CC4B2AC42F8DB2C4627
:1058C00004E0242000F08CF8601CC4B2BC42F8DB79
:1058D000BDE8F0812DE9F05F05460E4614464FF015
:1058E000250A50E0702D02DD0025B01CC6B2062E40
:1058F00000DD4BE04FF00008002724E007EBC70174
:10590000244A02EB8100FAF790FC814607EBC700BE
:10591000204A02EB80014A462046FAF79AFC80B9F9
:1059200007EBC7001B4901EB8000021D31462846EA
:10593000FFF73BFE4C4405F11000C5B24FF00108E3
:1059400003E0781CC7B25745D8DB00BFB8F1000FA1
:1059500018D120787F2814DCA946EB1705EB537388
:10596000DB105B1CD9B2B34606EBDB735B105B1C30
:10597000D8B22278FFF732FF641C05F10800C5B2E7
:1059800000E0641C00BF20780028ABD100BFBDE858
:10599000F09F000014D600082DE9F04107460E469E
:1059A0001546002407E02A5D3019C1B23846FFF7DA
:1059B00015FF601CC4B2285D0028F4D1BDE8F08159
:1059C00010B50446FFF750FE7820FFF721FE0020B7
:1059D000FFF71EFE2046FFF71BFEFFF75DFE10BD22
:1059E00010B50446FFF740FE7820FFF711FE402077
:1059F000FFF70EFE2046FFF70BFEFFF74DFE10BD32
:105A00007047000008B508490968C9084FF47A7260
:105A1000B1FBF2F14143009100BF00BF00994A1E63
:105A200000920029F9D108BD0C000020704710B584
:105A3000FDF7E2FB10BD00B593B0282109A8FAF7E5
:105A4000CDFB142104A8FAF7C9FB002000900190B7
:105A5000029003900120099000040A9000200B900E
:105A600001200D9002201090C10311914FF4E0111C
:105A7000129109A8FDF74EFE08B1FBF7C4FF0F20F5
:105A8000049002200590002006904FF4806007905B
:105A900000200890022104A8FDF718FD08B1FBF7CB
:105AA000B2FF02200090800302906846FDF776FC6A
:105AB00008B1FBF7A8FF13B000BD704710B502682E
:105AC0001C4B984208D0B0F1804F05D01A4B984239
:105AD00002D01A4B984203D122F070024B681A434D
